{
  "contractName": "OwnerDetails",
  "abi": [
    {
      "inputs": [],
      "payable": false,
      "stateMutability": "nonpayable",
      "type": "constructor"
    },
    {
      "anonymous": false,
      "inputs": [
        {
          "indexed": true,
          "name": "oldOwner",
          "type": "address"
        },
        {
          "indexed": true,
          "name": "newOwner",
          "type": "address"
        }
      ],
      "name": "ChangeOwnerEvent",
      "type": "event"
    },
    {
      "constant": true,
      "inputs": [],
      "name": "Owner",
      "outputs": [
        {
          "name": "",
          "type": "address"
        }
      ],
      "payable": false,
      "stateMutability": "view",
      "type": "function"
    },
    {
      "constant": false,
      "inputs": [
        {
          "name": "newOwner",
          "type": "address"
        }
      ],
      "name": "changeOwner",
      "outputs": [],
      "payable": false,
      "stateMutability": "nonpayable",
      "type": "function"
    }
  ],
  "bytecode": "0x608060405234801561001057600080fd5b50336000806101000a81548173ffffffffffffffffffffffffffffffffffffffff021916908373ffffffffffffffffffffffffffffffffffffffff1602179055506000809054906101000a900473ffffffffffffffffffffffffffffffffffffffff1673ffffffffffffffffffffffffffffffffffffffff16600073ffffffffffffffffffffffffffffffffffffffff167f1c3c3d32752a939db9ac720da757226033136f4b2c9878c337e09f5c85b108da60405160405180910390a36102db806100dc6000396000f3fe60806040526004361061004c576000357c0100000000000000000000000000000000000000000000000000000000900463ffffffff168063a6f9dae114610051578063b4a99a4e146100a2575b600080fd5b34801561005d57600080fd5b506100a06004803603602081101561007457600080fd5b81019080803573ffffffffffffffffffffffffffffffffffffffff1690602001909291905050506100f9565b005b3480156100ae57600080fd5b506100b7610286565b604051808273ffffffffffffffffffffffffffffffffffffffff1673ffffffffffffffffffffffffffffffffffffffff16815260200191505060405180910390f35b3373ffffffffffffffffffffffffffffffffffffffff166000809054906101000a900473ffffffffffffffffffffffffffffffffffffffff1673ffffffffffffffffffffffffffffffffffffffff1614151561015457600080fd5b8073ffffffffffffffffffffffffffffffffffffffff166000809054906101000a900473ffffffffffffffffffffffffffffffffffffffff1673ffffffffffffffffffffffffffffffffffffffff16141580156101de5750600073ffffffffffffffffffffffffffffffffffffffff168173ffffffffffffffffffffffffffffffffffffffff1614155b15156101e957600080fd5b806000806101000a81548173ffffffffffffffffffffffffffffffffffffffff021916908373ffffffffffffffffffffffffffffffffffffffff1602179055508073ffffffffffffffffffffffffffffffffffffffff163373ffffffffffffffffffffffffffffffffffffffff167f1c3c3d32752a939db9ac720da757226033136f4b2c9878c337e09f5c85b108da60405160405180910390a350565b60008060009054906101000a900473ffffffffffffffffffffffffffffffffffffffff1690509056fea165627a7a72305820a0e84221cce1f586ceaccc8b33c581af4bc623b6705402021736c25b716f200b0029",
  "source": "pragma solidity ^0.5.0;\r\n\r\ncontract OwnerDetails {\r\n  // owner\r\n  address private _owner;\r\n\r\n  // event\r\n  event ChangeOwnerEvent(\r\n    address indexed oldOwner,\r\n    address indexed newOwner\r\n  );\r\n\r\n  // constructor\r\n  constructor() public {\r\n    _owner = msg.sender;\r\n\r\n    emit ChangeOwnerEvent(address(0x0), _owner);\r\n  }\r\n\r\n  // modifier\r\n  modifier ownerOnly() {\r\n    require(_owner == msg.sender);\r\n    _;\r\n  }\r\n\r\n  // getter\r\n  function Owner() public view returns (address) {\r\n    return _owner;\r\n  }\r\n\r\n  // change owner\r\n  function changeOwner(address newOwner)\r\n    public\r\n    ownerOnly\r\n  {\r\n    require(_owner != newOwner && newOwner != address(0x0));\r\n    _owner = newOwner;\r\n    emit ChangeOwnerEvent(msg.sender, newOwner);\r\n  }\r\n}\r\n",
  "sourcePath": "/home/salman/DAPPS/Splitter/contracts/OwnerDetails.sol",
  "compiler": {
    "name": "solc",
    "version": "0.5.0+commit.1d4f565a.Emscripten.clang"
  },
  "schemaVersion": "3.0.3",
  "updatedAt": "2019-05-25T18:23:36.624Z",
  "devdoc": {
    "methods": {}
  },
  "userdoc": {
    "methods": {}
  }
}