{
  "contractName": "Splitter",
  "abi": [
    {
      "constant": true,
      "inputs": [],
      "name": "isRunning",
      "outputs": [
        {
          "name": "",
          "type": "bool"
        }
      ],
      "payable": false,
      "stateMutability": "view",
      "type": "function",
      "signature": "0x2014e5d1"
    },
    {
      "constant": false,
      "inputs": [
        {
          "name": "running",
          "type": "bool"
        }
      ],
      "name": "switchRunning",
      "outputs": [],
      "payable": false,
      "stateMutability": "nonpayable",
      "type": "function",
      "signature": "0x5f088053"
    },
    {
      "constant": false,
      "inputs": [
        {
          "name": "newOwner",
          "type": "address"
        }
      ],
      "name": "changeOwner",
      "outputs": [],
      "payable": false,
      "stateMutability": "nonpayable",
      "type": "function",
      "signature": "0xa6f9dae1"
    },
    {
      "constant": true,
      "inputs": [],
      "name": "Owner",
      "outputs": [
        {
          "name": "",
          "type": "address"
        }
      ],
      "payable": false,
      "stateMutability": "view",
      "type": "function",
      "signature": "0xb4a99a4e"
    },
    {
      "inputs": [
        {
          "name": "isContractRunning",
          "type": "bool"
        }
      ],
      "payable": false,
      "stateMutability": "nonpayable",
      "type": "constructor",
      "signature": "constructor"
    },
    {
      "anonymous": false,
      "inputs": [
        {
          "indexed": true,
          "name": "alice",
          "type": "address"
        },
        {
          "indexed": false,
          "name": "amount",
          "type": "uint256"
        },
        {
          "indexed": true,
          "name": "bob",
          "type": "address"
        },
        {
          "indexed": true,
          "name": "carol",
          "type": "address"
        }
      ],
      "name": "SplitEvent",
      "type": "event",
      "signature": "0x114c6a63229665e57b058e9e46178d3feb6dd987b44b45b11966181442bc9ed1"
    },
    {
      "anonymous": false,
      "inputs": [
        {
          "indexed": true,
          "name": "receiver",
          "type": "address"
        },
        {
          "indexed": false,
          "name": "amount",
          "type": "uint256"
        }
      ],
      "name": "WithdrawlEvent",
      "type": "event",
      "signature": "0x691803d221a7ae52aec3f7185d0cc2eb9a84c6b73aed298467d305a2202cf588"
    },
    {
      "anonymous": false,
      "inputs": [
        {
          "indexed": false,
          "name": "receiver",
          "type": "address"
        },
        {
          "indexed": false,
          "name": "amount",
          "type": "uint256"
        },
        {
          "indexed": false,
          "name": "message",
          "type": "string"
        }
      ],
      "name": "FundsSent",
      "type": "event",
      "signature": "0xf4422e3f70bc4e3e91acf9d8cd676fa9b66ae14df2925bfa811bd6eeba0aa429"
    },
    {
      "anonymous": false,
      "inputs": [
        {
          "indexed": false,
          "name": "oldValue",
          "type": "bool"
        },
        {
          "indexed": false,
          "name": "newValue",
          "type": "bool"
        }
      ],
      "name": "ChangeRunningEvents",
      "type": "event",
      "signature": "0x3727a3817421694fd9adb621a66ebcabce1997b635f0ee25460b194328d1f587"
    },
    {
      "anonymous": false,
      "inputs": [
        {
          "indexed": true,
          "name": "oldOwner",
          "type": "address"
        },
        {
          "indexed": true,
          "name": "newOwner",
          "type": "address"
        }
      ],
      "name": "ChangeOwnerEvent",
      "type": "event",
      "signature": "0x1c3c3d32752a939db9ac720da757226033136f4b2c9878c337e09f5c85b108da"
    },
    {
      "constant": true,
      "inputs": [
        {
          "name": "_address",
          "type": "address"
        }
      ],
      "name": "getBalanceOf",
      "outputs": [
        {
          "name": "balance",
          "type": "uint256"
        }
      ],
      "payable": false,
      "stateMutability": "view",
      "type": "function",
      "signature": "0x9b96eece"
    },
    {
      "constant": false,
      "inputs": [
        {
          "name": "bob",
          "type": "address"
        },
        {
          "name": "carol",
          "type": "address"
        }
      ],
      "name": "split",
      "outputs": [],
      "payable": true,
      "stateMutability": "payable",
      "type": "function",
      "signature": "0x0f2c9329"
    }
  ],
  "bytecode": "0x608060405234801561001057600080fd5b50604051602080610ab88339810180604052602081101561003057600080fd5b810190808051906020019092919050505080336000806101000a81548173ffffffffffffffffffffffffffffffffffffffff021916908373ffffffffffffffffffffffffffffffffffffffff1602179055506000809054906101000a900473ffffffffffffffffffffffffffffffffffffffff1673ffffffffffffffffffffffffffffffffffffffff16600073ffffffffffffffffffffffffffffffffffffffff167f1c3c3d32752a939db9ac720da757226033136f4b2c9878c337e09f5c85b108da60405160405180910390a380600060146101000a81548160ff021916908315150217905550505061098f806101296000396000f3fe608060405260043610610078576000357c0100000000000000000000000000000000000000000000000000000000900463ffffffff1680630f2c93291461007d5780632014e5d1146100e15780635f088053146101105780639b96eece1461014d578063a6f9dae1146101b2578063b4a99a4e14610203575b600080fd5b6100df6004803603604081101561009357600080fd5b81019080803573ffffffffffffffffffffffffffffffffffffffff169060200190929190803573ffffffffffffffffffffffffffffffffffffffff16906020019092919050505061025a565b005b3480156100ed57600080fd5b506100f661060b565b604051808215151515815260200191505060405180910390f35b34801561011c57600080fd5b5061014b6004803603602081101561013357600080fd5b81019080803515159060200190929190505050610621565b005b34801561015957600080fd5b5061019c6004803603602081101561017057600080fd5b81019080803573ffffffffffffffffffffffffffffffffffffffff1690602001909291905050506106f4565b6040518082815260200191505060405180910390f35b3480156101be57600080fd5b50610201600480360360208110156101d557600080fd5b81019080803573ffffffffffffffffffffffffffffffffffffffff16906020019092919050505061073d565b005b34801561020f57600080fd5b506102186108ca565b604051808273ffffffffffffffffffffffffffffffffffffffff1673ffffffffffffffffffffffffffffffffffffffff16815260200191505060405180910390f35b600060149054906101000a900460ff16151561027557600080fd5b3373ffffffffffffffffffffffffffffffffffffffff166000809054906101000a900473ffffffffffffffffffffffffffffffffffffffff1673ffffffffffffffffffffffffffffffffffffffff161415156102d057600080fd5b600073ffffffffffffffffffffffffffffffffffffffff168273ffffffffffffffffffffffffffffffffffffffff161415801561033a5750600073ffffffffffffffffffffffffffffffffffffffff168173ffffffffffffffffffffffffffffffffffffffff1614155b151561034557600080fd5b6000341115156103e3576040517f08c379a00000000000000000000000000000000000000000000000000000000081526004018080602001828103825260238152602001807f5370656369667920416d6f756e74206e6565647320746f2062652073706c697481526020017f746564000000000000000000000000000000000000000000000000000000000081525060400191505060405180910390fd5b60006103f96002346108f390919063ffffffff16565b905061044d81600160008673ffffffffffffffffffffffffffffffffffffffff1673ffffffffffffffffffffffffffffffffffffffff1681526020019081526020016000205461091d90919063ffffffff16565b600160008573ffffffffffffffffffffffffffffffffffffffff1673ffffffffffffffffffffffffffffffffffffffff168152602001908152602001600020819055506104e281600160008573ffffffffffffffffffffffffffffffffffffffff1673ffffffffffffffffffffffffffffffffffffffff1681526020019081526020016000205461091d90919063ffffffff16565b600160008473ffffffffffffffffffffffffffffffffffffffff1673ffffffffffffffffffffffffffffffffffffffff168152602001908152602001600020819055508173ffffffffffffffffffffffffffffffffffffffff168373ffffffffffffffffffffffffffffffffffffffff163373ffffffffffffffffffffffffffffffffffffffff167f114c6a63229665e57b058e9e46178d3feb6dd987b44b45b11966181442bc9ed1346040518082815260200191505060405180910390a460006105b760023461093e90919063ffffffff16565b1115610606573373ffffffffffffffffffffffffffffffffffffffff166108fc60019081150290604051600060405180830381858888f19350505050158015610604573d6000803e3d6000fd5b505b505050565b60008060149054906101000a900460ff16905090565b3373ffffffffffffffffffffffffffffffffffffffff166000809054906101000a900473ffffffffffffffffffffffffffffffffffffffff1673ffffffffffffffffffffffffffffffffffffffff1614151561067c57600080fd5b60008060149054906101000a900460ff16905081600060146101000a81548160ff0219169083151502179055507f3727a3817421694fd9adb621a66ebcabce1997b635f0ee25460b194328d1f58781836040518083151515158152602001821515151581526020019250505060405180910390a15050565b6000600160008373ffffffffffffffffffffffffffffffffffffffff1673ffffffffffffffffffffffffffffffffffffffff168152602001908152602001600020549050919050565b3373ffffffffffffffffffffffffffffffffffffffff166000809054906101000a900473ffffffffffffffffffffffffffffffffffffffff1673ffffffffffffffffffffffffffffffffffffffff1614151561079857600080fd5b8073ffffffffffffffffffffffffffffffffffffffff166000809054906101000a900473ffffffffffffffffffffffffffffffffffffffff1673ffffffffffffffffffffffffffffffffffffffff16141580156108225750600073ffffffffffffffffffffffffffffffffffffffff168173ffffffffffffffffffffffffffffffffffffffff1614155b151561082d57600080fd5b806000806101000a81548173ffffffffffffffffffffffffffffffffffffffff021916908373ffffffffffffffffffffffffffffffffffffffff1602179055508073ffffffffffffffffffffffffffffffffffffffff163373ffffffffffffffffffffffffffffffffffffffff167f1c3c3d32752a939db9ac720da757226033136f4b2c9878c337e09f5c85b108da60405160405180910390a350565b60008060009054906101000a900473ffffffffffffffffffffffffffffffffffffffff16905090565b6000808211151561090357600080fd5b6000828481151561091057fe5b0490508091505092915050565b600080828401905083811015151561093457600080fd5b8091505092915050565b600080821415151561094f57600080fd5b818381151561095a57fe5b0690509291505056fea165627a7a7230582089f64643dc5ff64b0a0673bb71ba75194fe30a3c43c43c71b12826eb7ae263940029",
  "source": "pragma solidity ^0.5.0;\r\n\r\nimport './SafeMath.sol';\r\nimport './Pausable.sol';\r\n\r\ncontract Splitter is Pausable{\r\n    \r\n        using SafeMath for uint;\r\n        \r\n        mapping(address => uint) private balances;\r\n            \r\n        constructor(bool isContractRunning)  public Pausable(isContractRunning)  {\r\n                  \r\n         }\r\n              \r\n        event SplitEvent( address indexed alice,  uint amount,address indexed bob,address indexed carol );\r\n        event WithdrawlEvent(  address indexed receiver,uint amount );\r\n        event FundsSent(address receiver, uint amount, string message);\r\n\r\n    // this function is used to check balance\r\n    function getBalanceOf(address _address)  public view returns(uint balance)  {\r\n        balance = balances[_address];\r\n    }\r\n    \r\n    //Split funds , only Alice can Split the funds which is a contract owner\r\n     function split( address payable bob, address payable carol )public payable runningOnly ownerOnly {\r\n        require(bob != address(0x0) && carol != address(0x0));\r\n        //divide amount into half\r\n        require(msg.value>0, \"Specify Amount needs to be splitted\");\r\n        uint halfofTheAmount = msg.value.div(2);\r\n        // record balances\r\n        balances[bob] = balances[bob].add(halfofTheAmount);\r\n        balances[carol] = balances[carol].add(halfofTheAmount);\r\n\r\n        // emit event\r\n        emit SplitEvent(msg.sender, msg.value, bob, carol);\r\n        \r\n        // odd number, returning the change.\r\n        if(msg.value.mod(2) > 0) msg.sender.transfer(1);\r\n    }\r\n        \r\n      function sendFunds(address payable receiver, uint amount) private runningOnly {\r\n        require(amount>0,\"Please Specify Amount other than 0\") ;\r\n        receiver.transfer(amount);\r\n        emit FundsSent(receiver, amount, \"Funds has been transferred to receiver\");\r\n        balances[msg.sender] = balances[msg.sender].sub(amount);\r\n        balances[receiver] = balances[receiver].add(amount);\r\n    }    \r\n\r\n}\r\n",
  "sourcePath": "/home/salman/DAPPS/Splitter/contracts/Splitter.sol",
  "compiler": {
    "name": "solc",
    "version": "0.5.0+commit.1d4f565a.Emscripten.clang"
  },
  "schemaVersion": "3.0.3",
  "updatedAt": "2019-05-27T12:26:33.822Z",
  "devdoc": {
    "methods": {}
  },
  "userdoc": {
    "methods": {}
  }
}